{
  "address": "0xcc9195c34ef5CC65F5A377037a50F86c066F0a32",
  "abi": [
    {
      "anonymous": false,
      "inputs": [
        {
          "indexed": true,
          "internalType": "address",
          "name": "maker",
          "type": "address"
        },
        {
          "indexed": true,
          "internalType": "address",
          "name": "taker",
          "type": "address"
        },
        {
          "indexed": false,
          "internalType": "address",
          "name": "coinTypeToMaker",
          "type": "address"
        },
        {
          "indexed": false,
          "internalType": "uint256",
          "name": "coinAmountToMaker",
          "type": "uint256"
        },
        {
          "indexed": false,
          "internalType": "address",
          "name": "coinTypeToTaker",
          "type": "address"
        },
        {
          "indexed": false,
          "internalType": "uint256",
          "name": "coinAmountToTaker",
          "type": "uint256"
        },
        {
          "indexed": false,
          "internalType": "uint256",
          "name": "dueTime80",
          "type": "uint256"
        }
      ],
      "name": "Exchange",
      "type": "event"
    },
    {
      "anonymous": false,
      "inputs": [
        {
          "indexed": true,
          "internalType": "address",
          "name": "maker",
          "type": "address"
        },
        {
          "indexed": false,
          "internalType": "uint256",
          "name": "newDueTime",
          "type": "uint256"
        },
        {
          "indexed": false,
          "internalType": "uint256",
          "name": "currTime",
          "type": "uint256"
        }
      ],
      "name": "NewDueTime",
      "type": "event"
    },
    {
      "anonymous": false,
      "inputs": [
        {
          "indexed": true,
          "internalType": "address",
          "name": "previousOwner",
          "type": "address"
        },
        {
          "indexed": true,
          "internalType": "address",
          "name": "newOwner",
          "type": "address"
        }
      ],
      "name": "OwnershipTransferred",
      "type": "event"
    },
    {
      "inputs": [
        {
          "internalType": "uint256",
          "name": "newDueTime",
          "type": "uint256"
        }
      ],
      "name": "addNewDueTime",
      "outputs": [],
      "stateMutability": "nonpayable",
      "type": "function"
    },
    {
      "inputs": [
        {
          "internalType": "uint256",
          "name": "maxCount",
          "type": "uint256"
        },
        {
          "internalType": "address",
          "name": "makerAddr",
          "type": "address"
        }
      ],
      "name": "clearOldDueTimes",
      "outputs": [],
      "stateMutability": "nonpayable",
      "type": "function"
    },
    {
      "inputs": [
        {
          "internalType": "uint256",
          "name": "coinsToMaker",
          "type": "uint256"
        },
        {
          "internalType": "uint256",
          "name": "coinsToTaker",
          "type": "uint256"
        },
        {
          "internalType": "uint256",
          "name": "dueTime80_v8_version8",
          "type": "uint256"
        },
        {
          "internalType": "bytes32",
          "name": "r",
          "type": "bytes32"
        },
        {
          "internalType": "bytes32",
          "name": "s",
          "type": "bytes32"
        }
      ],
      "name": "directExchange",
      "outputs": [],
      "stateMutability": "payable",
      "type": "function"
    },
    {
      "inputs": [
        {
          "internalType": "uint256",
          "name": "coinsToMaker",
          "type": "uint256"
        },
        {
          "internalType": "uint256",
          "name": "coinsToTaker",
          "type": "uint256"
        },
        {
          "internalType": "uint256",
          "name": "dueTime80",
          "type": "uint256"
        }
      ],
      "name": "getEIP712Hash",
      "outputs": [
        {
          "internalType": "bytes32",
          "name": "",
          "type": "bytes32"
        }
      ],
      "stateMutability": "view",
      "type": "function"
    },
    {
      "inputs": [
        {
          "internalType": "address",
          "name": "makerAddr",
          "type": "address"
        },
        {
          "internalType": "uint256",
          "name": "maxCount",
          "type": "uint256"
        }
      ],
      "name": "getRecentDueTimes",
      "outputs": [
        {
          "internalType": "uint256[]",
          "name": "",
          "type": "uint256[]"
        }
      ],
      "stateMutability": "view",
      "type": "function"
    },
    {
      "inputs": [
        {
          "internalType": "uint256",
          "name": "coinsToMaker",
          "type": "uint256"
        },
        {
          "internalType": "uint256",
          "name": "coinsToTaker",
          "type": "uint256"
        },
        {
          "internalType": "uint256",
          "name": "dueTime80_v8_version8",
          "type": "uint256"
        },
        {
          "internalType": "bytes32",
          "name": "r",
          "type": "bytes32"
        },
        {
          "internalType": "bytes32",
          "name": "s",
          "type": "bytes32"
        }
      ],
      "name": "getSigner",
      "outputs": [
        {
          "internalType": "address",
          "name": "",
          "type": "address"
        }
      ],
      "stateMutability": "view",
      "type": "function"
    },
    {
      "inputs": [
        {
          "internalType": "address",
          "name": "makerAddr",
          "type": "address"
        },
        {
          "internalType": "uint256",
          "name": "dueTime",
          "type": "uint256"
        }
      ],
      "name": "isReplay",
      "outputs": [
        {
          "internalType": "bool",
          "name": "",
          "type": "bool"
        }
      ],
      "stateMutability": "view",
      "type": "function"
    },
    {
      "inputs": [
        {
          "internalType": "address",
          "name": "",
          "type": "address"
        },
        {
          "internalType": "uint256",
          "name": "",
          "type": "uint256"
        }
      ],
      "name": "makerNextRecentDueTime",
      "outputs": [
        {
          "internalType": "uint256",
          "name": "",
          "type": "uint256"
        }
      ],
      "stateMutability": "view",
      "type": "function"
    },
    {
      "inputs": [
        {
          "internalType": "address",
          "name": "",
          "type": "address"
        }
      ],
      "name": "makerRDTHeadTail",
      "outputs": [
        {
          "internalType": "uint256",
          "name": "",
          "type": "uint256"
        }
      ],
      "stateMutability": "view",
      "type": "function"
    },
    {
      "inputs": [],
      "name": "owner",
      "outputs": [
        {
          "internalType": "address",
          "name": "",
          "type": "address"
        }
      ],
      "stateMutability": "view",
      "type": "function"
    },
    {
      "inputs": [],
      "name": "renounceOwnership",
      "outputs": [],
      "stateMutability": "nonpayable",
      "type": "function"
    },
    {
      "inputs": [
        {
          "internalType": "address",
          "name": "newOwner",
          "type": "address"
        }
      ],
      "name": "transferOwnership",
      "outputs": [],
      "stateMutability": "nonpayable",
      "type": "function"
    }
  ],
  "transactionHash": "0x54002f1f3dfbc73f97939837d95a3eb312b5a5362125bec1148f76083dde6c5e",
  "args": [],
  "numDeployments": 2,
  "solcInputHash": "ba5add4c53f393c2fd4e98e47072f306",
  "bytecode": "0x608060405234801561001057600080fd5b5061001a3361001f565b61006f565b600080546001600160a01b038381166001600160a01b0319831681178455604051919092169283917f8be0079c531659141344cd1fd0a4f28419497f9722a3daafe3b4186f6b6457e09190a35050565b6112be8061007e6000396000f3fe6080604052600436106100a75760003560e01c80638da5cb5b116100645780638da5cb5b1461018e578063e7e40650146101c0578063f1b36d13146101e0578063f1e25f811461020d578063f2fde38b1461023d578063fa42abe81461025d57600080fd5b80633f084e41146100ac57806342a10c32146100c15780634b3fdaa1146100f457806369c37f651461012c578063715018a61461014c57806389c967b714610161575b600080fd5b6100bf6100ba366004610fe7565b61027d565b005b3480156100cd57600080fd5b506100e16100dc366004611022565b610291565b6040519081526020015b60405180910390f35b34801561010057600080fd5b506100e161010f36600461106a565b600160209081526000928352604080842090915290825290205481565b34801561013857600080fd5b506100bf610147366004611094565b6104ba565b34801561015857600080fd5b506100bf610532565b34801561016d57600080fd5b506100e161017c3660046110c0565b60026020526000908152604090205481565b34801561019a57600080fd5b506000546001600160a01b03165b6040516001600160a01b0390911681526020016100eb565b3480156101cc57600080fd5b506100bf6101db3660046110e2565b610546565b3480156101ec57600080fd5b506102006101fb36600461106a565b6105f5565b6040516100eb91906110fb565b34801561021957600080fd5b5061022d61022836600461106a565b6106d3565b60405190151581526020016100eb565b34801561024957600080fd5b506100bf6102583660046110c0565b610730565b34801561026957600080fd5b506101a8610278366004610fe7565b6107a9565b61028a858585858561082e565b5050505050565b6000806040518060800160405280605f815260200161122a605f91396040516020016102bd919061116f565b604051602081830303815290604052805190602001206040516020016102f6906c065786368616e6765206461707609c1b8152600d0190565b604051602081830303815290604052805190602001206040516020016103289065076302e312e360d41b815260060190565b6040516020818303038152906040528051906020012061271030604051602001610360906745786368616e676560c01b815260080190565b60408051601f19818403018152828252805160209182012090830197909752810194909452606084019290925260808301526001600160a01b031660a082015260c081019190915260e0016040516020818303038152906040528051906020012090508060405160200161042b907f45786368616e67652875696e7432353620636f696e73546f4d616b65722c756981527f6e7432353620636f696e73546f54616b65722c75696e743235362064756554696020820152646d6538302960d81b604082015260450190565b60408051601f198184030181528282528051602091820120908301528101879052606081018690526080810185905260a0016040516020818303038152906040528051906020012060405160200161049a92919061190160f01b81526002810192909252602282015260420190565b604051602081830303815290604052805190602001209150509392505050565b60006104cb64e8d4a51000426111a1565b6001600160a01b038316600090815260026020526040902054909150605081901c69ffffffffffffffffffff82166105068686868585610d90565b6001600160a01b03909616600090815260026020526040902060509190911b9095179094555050505050565b61053a610e04565b6105446000610e5e565b565b806105985760405162461bcd60e51b815260206004820152601d60248201527f4f72646572734361736856313a20696e76616c69642064756554696d6500000060448201526064015b60405180910390fd5b60006105a964e8d4a51000426111a1565b90506105b6338383610eae565b604080518381526020810183905233917f8d8faa894051ac5f062d0a75d9461ca5a8b3804412ed628af3c126f6a9a8c5dd910160405180910390a25050565b6001600160a01b03821660009081526002602052604081205460609160509190911c908367ffffffffffffffff811115610631576106316111c0565b60405190808252806020026020018201604052801561065a578160200160208202803683370190505b50905060005b848110801561066e57508215155b156106ca5782828281518110610686576106866111d6565b6020908102919091018101919091526001600160a01b0387166000908152600182526040808220958252949091529290922054916106c3816111ec565b9050610660565b50949350505050565b6001600160a01b03821660009081526002602052604081205469ffffffffffffffffffff168281148061072857506001600160a01b038416600090815260016020908152604080832086845290915290205415155b949350505050565b610738610e04565b6001600160a01b03811661079d5760405162461bcd60e51b815260206004820152602660248201527f4f776e61626c653a206e6577206f776e657220697320746865207a65726f206160448201526564647265737360d01b606482015260840161058f565b6107a681610e5e565b50565b6000806107bb8787601088901c610291565b604080516000815260208101808352839052600888901c60ff81169282019290925260608101879052608081018690529192509060019060a0016020604051602081039080840390855afa158015610817573d6000803e3d6000fd5b5050604051601f1901519998505050505050505050565b69ffffffffffffffffffff601084901c16600061085064e8d4a51000426111a1565b90508181106108a15760405162461bcd60e51b815260206004820152601b60248201527f4f72646572734361736856313a206f7264657220657870697265640000000000604482015260640161058f565b60ff85166001146109005760405162461bcd60e51b8152602060048201526024808201527f4f72646572734361736856313a2076657273696f6e20646f6573206e6f74206d6044820152630c2e8c6d60e31b606482015260840161058f565b600061090f88888888886107a9565b905061091c818484610eae565b33606089811c906bffffffffffffffffffffffff808c16918b901c908b16818414156109995760405162461bcd60e51b815260206004820152602660248201527f4f72646572734361736856313a20626f746820746f6b656e7320617265207468604482015265652073616d6560d01b606482015260840161058f565b6001600160a01b0384166109ad5761271193505b6001600160a01b0382166109c15761271191505b6001600160a01b0384166127111415806109db5750823411155b610a445760405162461bcd60e51b815260206004820152603460248201527f4f72646572734361736856313a204243482073656e74206578636565647320746044820152731a1948185b5bdd5b9d081d1bc81899481cd95b9d60621b606482015260840161058f565b8015610b4d576040516001600160a01b038781166024830152868116604483015260648201839052600091829185169060840160408051601f198184030181529181526020820180516001600160e01b03166323b872dd60e01b17905251610aac919061116f565b6000604051808303816000865af19150503d8060008114610ae9576040519150601f19603f3d011682016040523d82523d6000602084013e610aee565b606091505b509150915081610b4a5760405162461bcd60e51b815260206004820152602160248201527f4f72646572734361736856313a207472616e7366657246726f6d206661696c656044820152601960fa1b606482015260840161058f565b50505b8215610d20576001600160a01b0384166127111415610c5557823414610bb55760405162461bcd60e51b815260206004820152601c60248201527f4f72646572734361736856313a20424348206e6f7420656e6f75676800000000604482015260640161058f565b600080876001600160a01b031661232886604051600060405180830381858888f193505050503d8060008114610c07576040519150601f19603f3d011682016040523d82523d6000602084013e610c0c565b606091505b509150915081610c4e5760405162461bcd60e51b815260206004820152600d60248201526c1d1c985b9cd9995c8819985a5b609a1b604482015260640161058f565b5050610d20565b3415610ca35760405162461bcd60e51b815260206004820152601d60248201527f4f72646572734361736856313a206e6f206e65656420666f7220424348000000604482015260640161058f565b6040516323b872dd60e01b81526001600160a01b0386811660048301528781166024830152604482018590528516906323b872dd906064016020604051808303816000875af1158015610cfa573d6000803e3d6000fd5b505050506040513d601f19601f82011682018060405250810190610d1e9190611207565b505b604080516001600160a01b038681168252602082018690528481168284015260608201849052608082018b90529151878316928916917f2083d2b241ef1ec859ae0402864fd9fe9d6d36b18c73615625b46acaf113be78919081900360a00190a350505050505050505050505050565b60008060005b8781108015610da457508585105b8015610daf57508415155b15610ded576001600160a01b03871660009081526001602090815260408083209783529690529485208054959055610de6816111ec565b9050610d96565b5083610df857600092505b50919590945092505050565b6000546001600160a01b031633146105445760405162461bcd60e51b815260206004820181905260248201527f4f776e61626c653a2063616c6c6572206973206e6f7420746865206f776e6572604482015260640161058f565b600080546001600160a01b038381166001600160a01b0319831681178455604051919092169283917f8be0079c531659141344cd1fd0a4f28419497f9722a3daafe3b4186f6b6457e09190a35050565b6001600160a01b038316600090815260026020526040902054605081901c69ffffffffffffffffffff8216848114801590610f0a57506001600160a01b0386166000908152600160209081526040808320888452909152902054155b610f565760405162461bcd60e51b815260206004820152601d60248201527f4f72646572734361736856313a2064756554696d65206e6f74206e6577000000604482015260640161058f565b610f64600a87868585610d90565b9092509050610f7586868484610fa1565b6001600160a01b03909716600090815260026020526040902060509190911b9096179095555050505050565b60008083610fb3575083905080610fde565b50506001600160a01b0384166000908152600160209081526040808320848452909152902083905581835b94509492505050565b600080600080600060a08688031215610fff57600080fd5b505083359560208501359550604085013594606081013594506080013592509050565b60008060006060848603121561103757600080fd5b505081359360208301359350604090920135919050565b80356001600160a01b038116811461106557600080fd5b919050565b6000806040838503121561107d57600080fd5b6110868361104e565b946020939093013593505050565b600080604083850312156110a757600080fd5b823591506110b76020840161104e565b90509250929050565b6000602082840312156110d257600080fd5b6110db8261104e565b9392505050565b6000602082840312156110f457600080fd5b5035919050565b6020808252825182820181905260009190848201906040850190845b8181101561113357835183529284019291840191600101611117565b50909695505050505050565b60005b8381101561115a578181015183820152602001611142565b83811115611169576000848401525b50505050565b6000825161118181846020870161113f565b9190910192915050565b634e487b7160e01b600052601160045260246000fd5b60008160001904831182151516156111bb576111bb61118b565b500290565b634e487b7160e01b600052604160045260246000fd5b634e487b7160e01b600052603260045260246000fd5b60006000198214156112005761120061118b565b5060010190565b60006020828403121561121957600080fd5b815180151581146110db57600080fdfe454950373132446f6d61696e28737472696e67206e616d652c737472696e672076657273696f6e2c75696e7432353620636861696e49642c6164647265737320766572696679696e67436f6e74726163742c627974657333322073616c7429a2646970667358221220ebaec43964d6151d3b14e635028c576a3ac564fe74021e33bac9864aec5a4aef64736f6c634300080a0033",
  "devdoc": {
    "kind": "dev",
    "methods": {
      "owner()": {
        "details": "Returns the address of the current owner."
      },
      "renounceOwnership()": {
        "details": "Leaves the contract without owner. It will not be possible to call `onlyOwner` functions anymore. Can only be called by the current owner. NOTE: Renouncing ownership will leave the contract without an owner, thereby removing any functionality that is only available to the owner."
      },
      "transferOwnership(address)": {
        "details": "Transfers ownership of the contract to a new account (`newOwner`). Can only be called by the current owner."
      }
    },
    "version": 1
  },
  "userdoc": {
    "kind": "user",
    "methods": {},
    "version": 1
  },
  "storageLayout": {
    "storage": [
      {
        "astId": 7,
        "contract": "contracts/OrdersCashV1.sol:OrdersCashV1",
        "label": "_owner",
        "offset": 0,
        "slot": "0",
        "type": "t_address"
      },
      {
        "astId": 1822,
        "contract": "contracts/OrdersCashV1.sol:OrdersCashV1",
        "label": "makerNextRecentDueTime",
        "offset": 0,
        "slot": "1",
        "type": "t_mapping(t_address,t_mapping(t_uint256,t_uint256))"
      },
      {
        "astId": 1826,
        "contract": "contracts/OrdersCashV1.sol:OrdersCashV1",
        "label": "makerRDTHeadTail",
        "offset": 0,
        "slot": "2",
        "type": "t_mapping(t_address,t_uint256)"
      }
    ],
    "types": {
      "t_address": {
        "encoding": "inplace",
        "label": "address",
        "numberOfBytes": "20"
      },
      "t_mapping(t_address,t_mapping(t_uint256,t_uint256))": {
        "encoding": "mapping",
        "key": "t_address",
        "label": "mapping(address => mapping(uint256 => uint256))",
        "numberOfBytes": "32",
        "value": "t_mapping(t_uint256,t_uint256)"
      },
      "t_mapping(t_address,t_uint256)": {
        "encoding": "mapping",
        "key": "t_address",
        "label": "mapping(address => uint256)",
        "numberOfBytes": "32",
        "value": "t_uint256"
      },
      "t_mapping(t_uint256,t_uint256)": {
        "encoding": "mapping",
        "key": "t_uint256",
        "label": "mapping(uint256 => uint256)",
        "numberOfBytes": "32",
        "value": "t_uint256"
      },
      "t_uint256": {
        "encoding": "inplace",
        "label": "uint256",
        "numberOfBytes": "32"
      }
    }
  }
}